:10000000472F00308A000408840A82070034003435
:100010000034003400340034003400340034103430
:1000200020341034043420340434043402340F34C3
:100030000F342B342B341B341B3439343934CB2F4D
:04004000D42FE12FA9
:100E8A003F340034F001F101F201F301F401F501FC
:100E9A004527A0004627A1008301532F831285010D
:100EAA0007309900013083169100013083129F00A8
:100EBA00103083169F00612FFB01FC017C08803AE9
:100ECA00FF0080307F02031D6C2F08307B02031C59
:100EDA006F2F702F722FED2FED2FF401F5017B2F5D
:100EEA000130F4070318F50A0030F5077508803A4F
:100EFA00F60083122108803A7602031D862F200805
:100F0A007402031C892F8A2F752F8B2F7B0AF600F8
:100F1A000130F7000030F800952F0310F70DF80D97
:100F2A00F60B922F72087705F90073087805FA0014
:100F3A007A087904031DA22FA32FAA2F7B08013E4A
:100F4A008400012083128500B02F7B08093E8400AB
:100F5A000120831285007B08113E8400012083163C
:100F6A0085000130FB070318FC0A0030FC077C08E7
:100F7A00803AFF0080307F02031DC52F08307B02B4
:100F8A00031CC82FC92F722FED2FED2F83129F1428
:100F9A000130F0070318F10A0030F107612F8312BC
:100FAA009F18D82FD92F612F0130F0070318F10AA3
:100FBA000030F107612F612F83121E08F600F70136
:100FCA007608F2007708F300F001F101612F612F32
:100FDA007108003A0319F22F612F70088400033058
:100FEA0004020318612F00308A001F3004078200B0
:060FFA00612F612F0028A9
:02400E00C430BC
:00000001FF
